{
  "_format": "hh-sol-artifact-1",
  "contractName": "PayLink",
  "sourceName": "contracts/PayLink.sol",
  "abi": [
    {
      "inputs": [],
      "name": "InvalidInitialization",
      "type": "error"
    },
    {
      "inputs": [],
      "name": "NotInitializing",
      "type": "error"
    },
    {
      "inputs": [],
      "name": "ReentrancyGuardReentrantCall",
      "type": "error"
    },
    {
      "anonymous": false,
      "inputs": [
        {
          "indexed": false,
          "internalType": "string",
          "name": "link",
          "type": "string"
        },
        {
          "indexed": false,
          "internalType": "address",
          "name": "contributor",
          "type": "address"
        },
        {
          "indexed": false,
          "internalType": "uint256",
          "name": "amount",
          "type": "uint256"
        }
      ],
      "name": "ContributionAdded",
      "type": "event"
    },
    {
      "anonymous": false,
      "inputs": [
        {
          "indexed": false,
          "internalType": "string",
          "name": "link",
          "type": "string"
        },
        {
          "indexed": false,
          "internalType": "address",
          "name": "creator",
          "type": "address"
        },
        {
          "indexed": false,
          "internalType": "uint256",
          "name": "amount",
          "type": "uint256"
        },
        {
          "indexed": false,
          "internalType": "enum PayLink.statusEnum",
          "name": "status",
          "type": "uint8"
        }
      ],
      "name": "FixedPaymentLinkCreated",
      "type": "event"
    },
    {
      "anonymous": false,
      "inputs": [
        {
          "indexed": false,
          "internalType": "string",
          "name": "link",
          "type": "string"
        },
        {
          "indexed": false,
          "internalType": "address",
          "name": "creator",
          "type": "address"
        }
      ],
      "name": "GlobalPaymentLinkCreated",
      "type": "event"
    },
    {
      "anonymous": false,
      "inputs": [
        {
          "indexed": false,
          "internalType": "uint64",
          "name": "version",
          "type": "uint64"
        }
      ],
      "name": "Initialized",
      "type": "event"
    },
    {
      "anonymous": false,
      "inputs": [
        {
          "indexed": false,
          "internalType": "string",
          "name": "invoiceId",
          "type": "string"
        },
        {
          "indexed": false,
          "internalType": "string",
          "name": "productId",
          "type": "string"
        },
        {
          "indexed": false,
          "internalType": "address",
          "name": "from",
          "type": "address"
        },
        {
          "indexed": false,
          "internalType": "uint256",
          "name": "amount",
          "type": "uint256"
        },
        {
          "indexed": false,
          "internalType": "enum PayLink.statusEnum",
          "name": "status",
          "type": "uint8"
        }
      ],
      "name": "InvoiceCreated",
      "type": "event"
    },
    {
      "anonymous": false,
      "inputs": [
        {
          "indexed": false,
          "internalType": "string",
          "name": "link",
          "type": "string"
        },
        {
          "indexed": false,
          "internalType": "address",
          "name": "client",
          "type": "address"
        },
        {
          "indexed": false,
          "internalType": "uint256",
          "name": "amount",
          "type": "uint256"
        },
        {
          "indexed": false,
          "internalType": "enum PayLink.statusEnum",
          "name": "status",
          "type": "uint8"
        }
      ],
      "name": "PaidFixedPayment",
      "type": "event"
    },
    {
      "anonymous": false,
      "inputs": [
        {
          "indexed": false,
          "internalType": "string",
          "name": "invoiceId",
          "type": "string"
        },
        {
          "indexed": false,
          "internalType": "uint256",
          "name": "amount",
          "type": "uint256"
        },
        {
          "indexed": false,
          "internalType": "enum PayLink.statusEnum",
          "name": "status",
          "type": "uint8"
        }
      ],
      "name": "PaidInvoice",
      "type": "event"
    },
    {
      "inputs": [
        {
          "internalType": "string",
          "name": "linkID",
          "type": "string"
        },
        {
          "internalType": "uint256",
          "name": "_amount",
          "type": "uint256"
        }
      ],
      "name": "contributeToGlobalPaymentLink",
      "outputs": [],
      "stateMutability": "nonpayable",
      "type": "function"
    },
    {
      "inputs": [
        {
          "internalType": "string",
          "name": "linkID",
          "type": "string"
        },
        {
          "internalType": "uint256",
          "name": "_amount",
          "type": "uint256"
        }
      ],
      "name": "createFixedPaymentLink",
      "outputs": [],
      "stateMutability": "nonpayable",
      "type": "function"
    },
    {
      "inputs": [
        {
          "internalType": "string",
          "name": "linkID",
          "type": "string"
        }
      ],
      "name": "createGlobalPaymentLink",
      "outputs": [],
      "stateMutability": "nonpayable",
      "type": "function"
    },
    {
      "inputs": [
        {
          "internalType": "string",
          "name": "_invoiceId",
          "type": "string"
        },
        {
          "internalType": "string",
          "name": "_productId",
          "type": "string"
        },
        {
          "internalType": "uint256",
          "name": "_amount",
          "type": "uint256"
        }
      ],
      "name": "createInvoice",
      "outputs": [],
      "stateMutability": "nonpayable",
      "type": "function"
    },
    {
      "inputs": [
        {
          "internalType": "string",
          "name": "",
          "type": "string"
        }
      ],
      "name": "fixedPaymentLink",
      "outputs": [
        {
          "internalType": "address",
          "name": "creator",
          "type": "address"
        },
        {
          "internalType": "string",
          "name": "link",
          "type": "string"
        },
        {
          "internalType": "uint256",
          "name": "amount",
          "type": "uint256"
        },
        {
          "internalType": "enum PayLink.statusEnum",
          "name": "status",
          "type": "uint8"
        }
      ],
      "stateMutability": "view",
      "type": "function"
    },
    {
      "inputs": [
        {
          "internalType": "string",
          "name": "",
          "type": "string"
        }
      ],
      "name": "fixedinkIDExist",
      "outputs": [
        {
          "internalType": "bool",
          "name": "",
          "type": "bool"
        }
      ],
      "stateMutability": "view",
      "type": "function"
    },
    {
      "inputs": [
        {
          "internalType": "string",
          "name": "",
          "type": "string"
        }
      ],
      "name": "globalPaymentLink",
      "outputs": [
        {
          "internalType": "address",
          "name": "creator",
          "type": "address"
        },
        {
          "internalType": "string",
          "name": "link",
          "type": "string"
        }
      ],
      "stateMutability": "view",
      "type": "function"
    },
    {
      "inputs": [
        {
          "internalType": "string",
          "name": "",
          "type": "string"
        }
      ],
      "name": "globalinkIDExist",
      "outputs": [
        {
          "internalType": "bool",
          "name": "",
          "type": "bool"
        }
      ],
      "stateMutability": "view",
      "type": "function"
    },
    {
      "inputs": [
        {
          "internalType": "address",
          "name": "_cUsdTokenAddress",
          "type": "address"
        }
      ],
      "name": "initialize",
      "outputs": [],
      "stateMutability": "nonpayable",
      "type": "function"
    },
    {
      "inputs": [
        {
          "internalType": "string",
          "name": "",
          "type": "string"
        }
      ],
      "name": "invoice",
      "outputs": [
        {
          "internalType": "string",
          "name": "invoiceId",
          "type": "string"
        },
        {
          "internalType": "string",
          "name": "productId",
          "type": "string"
        },
        {
          "internalType": "address",
          "name": "from",
          "type": "address"
        },
        {
          "internalType": "uint256",
          "name": "amount",
          "type": "uint256"
        },
        {
          "internalType": "enum PayLink.statusEnum",
          "name": "status",
          "type": "uint8"
        }
      ],
      "stateMutability": "view",
      "type": "function"
    },
    {
      "inputs": [
        {
          "internalType": "string",
          "name": "",
          "type": "string"
        }
      ],
      "name": "invoiceIdExist",
      "outputs": [
        {
          "internalType": "bool",
          "name": "",
          "type": "bool"
        }
      ],
      "stateMutability": "view",
      "type": "function"
    },
    {
      "inputs": [
        {
          "internalType": "string",
          "name": "linkID",
          "type": "string"
        }
      ],
      "name": "payFixedPaymentLink",
      "outputs": [],
      "stateMutability": "nonpayable",
      "type": "function"
    },
    {
      "inputs": [
        {
          "internalType": "string",
          "name": "_invoiceId",
          "type": "string"
        }
      ],
      "name": "payInvoice",
      "outputs": [],
      "stateMutability": "nonpayable",
      "type": "function"
    }
  ],
  "bytecode": "0x608060405234801561001057600080fd5b50611cc5806100206000396000f3fe608060405234801561001057600080fd5b50600436106100df5760003560e01c80636270fc891161008c5780637ef09744116100665780637ef097441461020f578063c4d66de814610222578063d6d885a514610235578063e7d92eb21461026357600080fd5b80636270fc89146101bb5780636dcb07dd146101e95780637c9495b2146101fc57600080fd5b8063359095c3116100bd578063359095c31461013957806338377eaa1461015c578063456eec471461019a57600080fd5b80630804d5ad146100e45780630f14ed70146100f957806319ab427814610126575b600080fd5b6100f76100f236600461174d565b610276565b005b61010c61010736600461174d565b610537565b60405161011d959493929190611812565b60405180910390f35b6100f761013436600461174d565b61068f565b61014c61014736600461174d565b610903565b60405161011d9493929190611866565b61018a61016a36600461174d565b805160208183018101805160078252928201919093012091525460ff1681565b604051901515815260200161011d565b6101ad6101a836600461174d565b6109cd565b60405161011d9291906118a6565b61018a6101c936600461174d565b805160208183018101805160068252928201919093012091525460ff1681565b6100f76101f73660046118c8565b610a87565b6100f761020a36600461174d565b610dbd565b6100f761021d366004611935565b61106d565b6100f761023036600461197a565b611376565b61018a61024336600461174d565b805160208183018101805160058252928201919093012091525460ff1681565b6100f7610271366004611935565b611510565b61027e611660565b600160038260405161029091906119aa565b9081526040519081900360200190206003015460ff1660018111156102b7576102b76117da565b036103095760405162461bcd60e51b815260206004820152601160248201527f4c696e6b20616c7265616479207061696400000000000000000000000000000060448201526064015b60405180910390fd5b60068160405161031991906119aa565b9081526040519081900360200190205460ff1661036e5760405162461bcd60e51b8152602060048201526013602482015272131a5b9ac8191bd95cc81b9bdd08195e1a5cdd606a1b6044820152606401610300565b600160038260405161038091906119aa565b908152604051908190036020019020600301805460ff1916600183818111156103ab576103ab6117da565b02179055506001546040516001600160a01b03909116906323b872dd9033906003906103d89086906119aa565b908152604051908190036020018120546001600160a01b0316906003906104009087906119aa565b908152604051908190036020018120600201546001600160e01b031960e086901b1682526001600160a01b03938416600483015291909216602483015260448201526064016020604051808303816000875af1158015610464573d6000803e3d6000fd5b505050506040513d601f19601f8201168201806040525081019061048891906119c6565b507f99b7a4d59b9dd449c0c916b95058015e77449dacbb95237b0f6a2e3fdd50996781336003846040516104bc91906119aa565b9081526020016040518091039020600201546003856040516104de91906119aa565b908152604051908190036020018120600301546105039493929160ff909116906119e8565b60405180910390a161053460017f9b779b17422d0df92223018b32b4d1fa46e071723d6817e2486d003becc55f0055565b50565b805160208183018101805160048252928201919093012091528054819061055d90611a1f565b80601f016020809104026020016040519081016040528092919081815260200182805461058990611a1f565b80156105d65780601f106105ab576101008083540402835291602001916105d6565b820191906000526020600020905b8154815290600101906020018083116105b957829003601f168201915b5050505050908060010180546105eb90611a1f565b80601f016020809104026020016040519081016040528092919081815260200182805461061790611a1f565b80156106645780601f1061063957610100808354040283529160200191610664565b820191906000526020600020905b81548152906001019060200180831161064757829003601f168201915b505050506002830154600384015460049094015492936001600160a01b039091169290915060ff1685565b610697611660565b6001546040516370a0823160e01b81523360048201526000916001600160a01b0316906370a0823190602401602060405180830381865afa1580156106e0573d6000803e3d6000fd5b505050506040513d601f19601f820116820180604052508101906107049190611a59565b10156107495760405162461bcd60e51b8152602060048201526014602482015273496e73756666696369656e742042616c616e636560601b6044820152606401610300565b60058160405161075991906119aa565b9081526040519081900360200190205460ff16156107b95760405162461bcd60e51b815260206004820152601860248201527f476c6f62616c206c696e6b204944206e6f7420657869737400000000000000006044820152606401610300565b60016005826040516107cb91906119aa565b9081526040805160209281900383018120805460ff1916941515949094179093558281018152338352908201839052516002906108099084906119aa565b90815260405160209181900382019020825181546001600160a01b0319166001600160a01b039091161781559082015160018201906108489082611ab8565b50506001546000546040516323b872dd60e01b81523360048201526001600160a01b039182166024820152671bc16d674ec800006044820152911691506323b872dd906064016020604051808303816000875af11580156108ad573d6000803e3d6000fd5b505050506040513d601f19601f820116820180604052508101906108d191906119c6565b507fce358a18d026c2c06cc766e26b6c6bc050ab5c949ad908f1cb4612573b7720a48133604051610503929190611b78565b8051602081830181018051600382529282019190930120915280546001820180546001600160a01b03909216929161093a90611a1f565b80601f016020809104026020016040519081016040528092919081815260200182805461096690611a1f565b80156109b35780601f10610988576101008083540402835291602001916109b3565b820191906000526020600020905b81548152906001019060200180831161099657829003601f168201915b50505050600283015460039093015491929160ff16905084565b8051602081830181018051600282529282019190930120915280546001820180546001600160a01b039092169291610a0490611a1f565b80601f0160208091040260200160405190810160405280929190818152602001828054610a3090611a1f565b8015610a7d5780601f10610a5257610100808354040283529160200191610a7d565b820191906000526020600020905b815481529060010190602001808311610a6057829003601f168201915b5050505050905082565b610a8f611660565b6001546040516370a0823160e01b81523360048201526000916001600160a01b0316906370a0823190602401602060405180830381865afa158015610ad8573d6000803e3d6000fd5b505050506040513d601f19601f82011682018060405250810190610afc9190611a59565b1015610b415760405162461bcd60e51b8152602060048201526014602482015273496e73756666696369656e742042616c616e636560601b6044820152606401610300565b600783604051610b5191906119aa565b9081526040519081900360200190205460ff1615610bb15760405162461bcd60e51b815260206004820152601960248201527f5f696e766f696365496420616c726561647920657869737473000000000000006044820152606401610300565b6001600784604051610bc391906119aa565b9081526040805160209281900383018120805460ff19169415159490941790935560a083018152858352908201849052339082015260608101829052608081016000815250600484604051610c1891906119aa565b90815260405190819003602001902081518190610c359082611ab8565b5060208201516001820190610c4a9082611ab8565b5060408201516002820180546001600160a01b0319166001600160a01b0390921691909117905560608201516003820155608082015160048201805460ff191660018381811115610c9d57610c9d6117da565b0217905550506001546000546001600160a01b0391821692506323b872dd913391166064610ccc866005611ba3565b610cd69190611bce565b6040516001600160e01b031960e086901b1681526001600160a01b03938416600482015292909116602483015260448201526064016020604051808303816000875af1158015610d2a573d6000803e3d6000fd5b505050506040513d601f19601f82011682018060405250810190610d4e91906119c6565b507f36d32ff41c85ee38a8cb20e8095422a528eb21a2a15df29cd464aefa104add94838333846000604051610d87959493929190611812565b60405180910390a1610db860017f9b779b17422d0df92223018b32b4d1fa46e071723d6817e2486d003becc55f0055565b505050565b610dc5611660565b6000600482604051610dd791906119aa565b9081526040519081900360200190206004015460ff166001811115610dfe57610dfe6117da565b03610e4b5760405162461bcd60e51b815260206004820152601460248201527f496e766f69636520616c726561647920706169640000000000000000000000006044820152606401610300565b600781604051610e5b91906119aa565b9081526040519081900360200190205460ff16610eba5760405162461bcd60e51b815260206004820152601960248201527f496e766f69636520696420646f6573206e6f74206578697374000000000000006044820152606401610300565b6001600482604051610ecc91906119aa565b908152604051908190036020019020600401805460ff191660018381811115610ef757610ef76117da565b02179055506001546040516001600160a01b03909116906323b872dd903390600490610f249086906119aa565b908152604051908190036020018120600201546001600160a01b031690600490610f4f9087906119aa565b908152604051908190036020018120600301546001600160e01b031960e086901b1682526001600160a01b03938416600483015291909216602483015260448201526064016020604051808303816000875af1158015610fb3573d6000803e3d6000fd5b505050506040513d601f19601f82011682018060405250810190610fd791906119c6565b507f42ad2b419f43c1cdc335d14cd783d8519b93acd31c3cc7810e122e160109a8d460048260405161100991906119aa565b908152604051908190036020018120906004906110279085906119aa565b90815260200160405180910390206003015460048460405161104991906119aa565b9081526040519081900360200181206004015461050393929160ff90911690611bf0565b611075611660565b6001546040516370a0823160e01b81523360048201526000916001600160a01b0316906370a0823190602401602060405180830381865afa1580156110be573d6000803e3d6000fd5b505050506040513d601f19601f820116820180604052508101906110e29190611a59565b10156111275760405162461bcd60e51b8152602060048201526014602482015273496e73756666696369656e742042616c616e636560601b6044820152606401610300565b60068260405161113791906119aa565b9081526040519081900360200190205460ff161561118d5760405162461bcd60e51b8152602060048201526013602482015272131a5b9ac8191bd95cc81b9bdd08195e1a5cdd606a1b6044820152606401610300565b600160068360405161119f91906119aa565b9081526040805160209281900383018120805460ff19169415159490941790935560808301815233835290820184905281018290526060810160008152506003836040516111ed91906119aa565b90815260405160209181900382019020825181546001600160a01b0319166001600160a01b0390911617815590820151600182019061122c9082611ab8565b5060408201516002820155606082015160038201805460ff191660018381811115611259576112596117da565b0217905550506001546000546001600160a01b0391821692506323b872dd913391166064611288866005611ba3565b6112929190611bce565b6040516001600160e01b031960e086901b1681526001600160a01b03938416600482015292909116602483015260448201526064016020604051808303816000875af11580156112e6573d6000803e3d6000fd5b505050506040513d601f19601f8201168201806040525081019061130a91906119c6565b507fd3ea4d18eccc04b1315190479ad5db5e0ca5d90dad2ee6ecfa423c75bd4f7e06823383600060405161134194939291906119e8565b60405180910390a161137260017f9b779b17422d0df92223018b32b4d1fa46e071723d6817e2486d003becc55f0055565b5050565b7ff0c57e16840df040f15088dc2f81fe391c3923bec73e23a9662efc9c229c6a00805468010000000000000000810460ff16159067ffffffffffffffff166000811580156113c15750825b905060008267ffffffffffffffff1660011480156113de5750303b155b9050811580156113ec575080155b1561140a5760405163f92ee8a960e01b815260040160405180910390fd5b845467ffffffffffffffff19166001178555831561143e57845468ff00000000000000001916680100000000000000001785555b6001600160a01b0386166114945760405162461bcd60e51b815260206004820152601a60248201527f496e76616c6964206355534420746f6b656e20616464726573730000000000006044820152606401610300565b60008054336001600160a01b031991821617909155600180549091166001600160a01b038816179055831561150857845468ff000000000000000019168555604051600181527fc7f505b2f371ae2175ee4913f4499e1f2633a7b5936321eed1cdaeb6115181d29060200160405180910390a15b505050505050565b611518611660565b60058260405161152891906119aa565b9081526040519081900360200190205460ff1661157d5760405162461bcd60e51b8152602060048201526013602482015272131a5b9ac8191bd95cc81b9bdd08195e1a5cdd606a1b6044820152606401610300565b6001546040516001600160a01b03909116906323b872dd9033906002906115a59087906119aa565b908152604051908190036020018120546001600160e01b031960e085901b1682526001600160a01b039283166004830152919091166024820152604481018490526064016020604051808303816000875af1158015611608573d6000803e3d6000fd5b505050506040513d601f19601f8201168201806040525081019061162c91906119c6565b507f17c364965a637c779007573304a4c8885e05750cf1997f7d4accf4a7ca1186ed82338360405161134193929190611c8a565b7f9b779b17422d0df92223018b32b4d1fa46e071723d6817e2486d003becc55f008054600119016116a457604051633ee5aeb560e01b815260040160405180910390fd5b60029055565b634e487b7160e01b600052604160045260246000fd5b600082601f8301126116d157600080fd5b813567ffffffffffffffff808211156116ec576116ec6116aa565b604051601f8301601f19908116603f01168101908282118183101715611714576117146116aa565b8160405283815286602085880101111561172d57600080fd5b836020870160208301376000602085830101528094505050505092915050565b60006020828403121561175f57600080fd5b813567ffffffffffffffff81111561177657600080fd5b611782848285016116c0565b949350505050565b60005b838110156117a557818101518382015260200161178d565b50506000910152565b600081518084526117c681602086016020860161178a565b601f01601f19169290920160200192915050565b634e487b7160e01b600052602160045260246000fd5b6002811061180e57634e487b7160e01b600052602160045260246000fd5b9052565b60a08152600061182560a08301886117ae565b828103602084015261183781886117ae565b9150506001600160a01b038516604083015283606083015261185c60808301846117f0565b9695505050505050565b6001600160a01b038516815260806020820152600061188860808301866117ae565b905083604083015261189d60608301846117f0565b95945050505050565b6001600160a01b038316815260406020820152600061178260408301846117ae565b6000806000606084860312156118dd57600080fd5b833567ffffffffffffffff808211156118f557600080fd5b611901878388016116c0565b9450602086013591508082111561191757600080fd5b50611924868287016116c0565b925050604084013590509250925092565b6000806040838503121561194857600080fd5b823567ffffffffffffffff81111561195f57600080fd5b61196b858286016116c0565b95602094909401359450505050565b60006020828403121561198c57600080fd5b81356001600160a01b03811681146119a357600080fd5b9392505050565b600082516119bc81846020870161178a565b9190910192915050565b6000602082840312156119d857600080fd5b815180151581146119a357600080fd5b6080815260006119fb60808301876117ae565b90506001600160a01b038516602083015283604083015261189d60608301846117f0565b600181811c90821680611a3357607f821691505b602082108103611a5357634e487b7160e01b600052602260045260246000fd5b50919050565b600060208284031215611a6b57600080fd5b5051919050565b601f821115610db857600081815260208120601f850160051c81016020861015611a995750805b601f850160051c820191505b8181101561150857828155600101611aa5565b815167ffffffffffffffff811115611ad257611ad26116aa565b611ae681611ae08454611a1f565b84611a72565b602080601f831160018114611b1b5760008415611b035750858301515b600019600386901b1c1916600185901b178555611508565b600085815260208120601f198616915b82811015611b4a57888601518255948401946001909101908401611b2b565b5085821015611b685787850151600019600388901b60f8161c191681555b5050505050600190811b01905550565b604081526000611b8b60408301856117ae565b90506001600160a01b03831660208301529392505050565b8082028115828204841417611bc857634e487b7160e01b600052601160045260246000fd5b92915050565b600082611beb57634e487b7160e01b600052601260045260246000fd5b500490565b606081526000808554611c0281611a1f565b8060608601526080600180841660008114611c245760018114611c3e57611c6f565b60ff1985168884015283151560051b880183019550611c6f565b8a60005260208060002060005b86811015611c665781548b8201870152908401908201611c4b565b8a018501975050505b505050505060208301859052905061178260408301846117f0565b606081526000611c9d60608301866117ae565b6001600160a01b03949094166020830152506040015291905056fea164736f6c6343000814000a",
  "linkReferences": {},
  "deployedLinkReferences": {}
}